:020000040800F2
:1000000000280020D90400086F04000875040008C7
:100010007B04000881040008870400080000000039
:100020000000000000000000000000008D04000837
:100030009304000800000000990400089F040008D1
:1000400069040008690400086904000869040008DC
:1000500069040008690400086904000869040008CC
:1000600069040008690400086904000869040008BC
:1000700069040008690400086904000869040008AC
:10008000690400086904000869040008690400089C
:10009000690400086904000869040008690400088C
:1000A000690400086904000869040008690400087C
:1000B00069040008690400080000000069040008E1
:1000C0006904000800000000000000006904000846
:1000D0000000000069040008690400080000000036
:1000E00069040008690400086904000800000000B1
:1000F0000000000000000000000000000000000000
:0C01000000000000000000005FF808F1A3
:1001140080B400AF01231846BD4680BC704780B44C
:1001240000AF01231846BD4680BC704780B485B03B
:1001340000AF78600023FB73FB7B18461437BD4681
:1001440080BC704780B485B000AF78600023FB7337
:10015400FB7B18461437BD4680BC704780B485B01D
:1001640000AF78600023FB73FB7B18461437BD4651
:1001740080BC704780B485B000AF78600023FB7307
:10018400FB7B18461437BD4680BC704780B485B0ED
:1001940000AF78600023FB730023BB737B681B787C
:1001A400002B64D17B685B78072B31D97B685B7843
:1001B400083BDBB29B00BB737B68DB78052B11D15A
:1001C400BB7B0D2202FA03F31946BB7B0F2202FA12
:1001D40003F3DB431A46294B5B681340274A0B435E
:1001E400536044E07B68DB78012B40D1BB7B042265
:1001F40002FA03F31946BB7B0F2202FA03F3DB4333
:100204001A461E4B5B6813401C4A0B4353602EE096
:100214007B685B789B00BB737B68DB78052B11D113
:10022400BB7B0D2202FA03F31946BB7B0F2202FAB1
:1002340003F3DB431A46114B1B6813400F4A0B436D
:10024400136014E07B68DB78012B10D1BB7B0422A4
:1002540002FA03F31946BB7B0F2202FA03F3DB43D2
:100264001A46064B1B681340044A0B431360FB7B7E
:1002740018461437BD4680BC704700BF00080140D3
:1002840080B485B000AF78600023FB73FB7B184615
:100294001437BD4680BC704780B483B000AF78602B
:1002A40005E07B68013B7B60054A7B6813607B68E3
:1002B400002BF6D100BF00BF0C37BD4680BC704791
:1002C4000400002080B584B000AF0B4BFB60FB68DA
:1002D4001B68BB60BB687B60084B4FF0A5321A609B
:1002E400074B3B603B6883F3088800BF7B689847F3
:1002F40000BF1037BD4680BD046000080000002028
:100304000028002080B500AF00F0CAF8FEE700BF67
:1003140080B500AF0C4B1B6803F48033002B05D170
:10032400094B1B68084A43F48033136000BF064B33
:100334001B6803F40033002BF9D0044800F008F8DC
:100344000123184680BD00BF001002405806000873
:1003540080B485B000AF78600023FB607B681A69C5
:100364007B681B69D943FB680B401343FB607B68C4
:100374005A697B685B69D943FB680B401343FB6094
:100384007B689A697B689B69D943FB680B4013437C
:10039400FB607B68DA697B68DB69D943FB680B40E7
:1003A4001343FB607B68DA687B68DB68D943FB68CE
:1003B4000B401343FB607B689A687B689B68D94356
:1003C400FB680B401343FB60FB68DA430F4B5B682D
:1003D4001A400E49FB6813434B600C4B1B6803F037
:1003E4008073002B05D1094B1B68084A43F08073C6
:1003F400136000BF054B1B6803F00073002BF9D09A
:10040400012318461437BD4680BC704700100240D3
:1004140080B483B000AF0346FB71FB79012B06D196
:100424000F4BDB690E4A43F00073D36112E0FB7992
:10043400062B06D10A4B9B69094A43F001039361D9
:1004440008E0FB79022B05D1054B9B69044A43F074
:100454000403936100BF18460C37BD4680BC704747
:100464000010024080B400AFFEE780B400AFFEE7A6
:1004740080B400AFFEE780B400AFFEE780B400AF05
:10048400FEE780B400AFFEE780B400AFFEE780B4BF
:1004940000AFFEE780B400AFFEE780B400AFFEE734
:1004A40080B500AFFFF734FF0346012B01D00023D2
:1004B4000EE0FFF734FE0346012B01D0002307E0D2
:1004C40000F044F80346012B01D0002300E001238F
:1004D400184680BD80B500AF00F004F8FFF712FFA6
:1004E40000BF80BD80B487B000AF134B7B61134B5A
:1004F4003B61134BBB60134BFB60134B7B6007E00A
:100504007A69131D7B613B69191D396112681A6090
:100514003A69BB689A42F3D104E0FB681A1DFA6099
:1005240000221A60FA687B689A42F6D100BF00BFC5
:100534001C37BD4680BC70477806000804000020C4
:1005440004000020040000202000002080B582B0B8
:1005540000AF0220FFF75CFF0346FB710620FFF7A4
:1005640057FF0346FB710120FFF752FF0346FB715F
:1005740000233B700123FB700B237B703B46184622
:10058400FFF704FE0346FB710523FB700C237B700D
:100594003B461846FFF7FAFD0346FB7100F01DF8D1
:1005A4000346FB7100F02AF80346FB7100F007F8DC
:1005B4000346FB71FB7918460837BD4680BD80B4FD
:1005C40000AF01231846BD4680BC704780B400AF1D
:1005D40001231846BD4680BC704780B400AF012398
:1005E4001846BD4680BC704780B483B000AF7860C5
:1005F400012318460C37BD4680BC704780B400AF59
:1006040001231846BD4680BC704780B483B000AF58
:100614007860012318460C37BD4680BC704780B40F
:1006240083B000AF7860012318460C37BD4680BC08
:1006340070470000010000000100000001000000FC
:1006440001000000010000000100000001000000A2
:100654000100000000000000000000000000010094
:1006640000001C0000000000000400000000000066
:0406740000C00000C2
:04067800000000007E
:04000005080004D912
:00000001FF
